{
  "address": "0x75cF7E3f9BA804319Ac99589928A46EEbC7b0bfE",
  "abi": [
    {
      "inputs": [
        {
          "internalType": "address",
          "name": "exampleExternalContractAddress",
          "type": "address"
        }
      ],
      "stateMutability": "nonpayable",
      "type": "constructor"
    },
    {
      "anonymous": false,
      "inputs": [
        {
          "indexed": true,
          "internalType": "address",
          "name": "staker",
          "type": "address"
        },
        {
          "indexed": false,
          "internalType": "uint256",
          "name": "amount",
          "type": "uint256"
        }
      ],
      "name": "Stake",
      "type": "event"
    },
    {
      "stateMutability": "payable",
      "type": "fallback"
    },
    {
      "inputs": [
        {
          "internalType": "address",
          "name": "",
          "type": "address"
        }
      ],
      "name": "balances",
      "outputs": [
        {
          "internalType": "uint256",
          "name": "",
          "type": "uint256"
        }
      ],
      "stateMutability": "view",
      "type": "function"
    },
    {
      "inputs": [],
      "name": "deadline",
      "outputs": [
        {
          "internalType": "uint256",
          "name": "",
          "type": "uint256"
        }
      ],
      "stateMutability": "view",
      "type": "function"
    },
    {
      "inputs": [],
      "name": "exampleExternalContract",
      "outputs": [
        {
          "internalType": "contract ExampleExternalContract",
          "name": "",
          "type": "address"
        }
      ],
      "stateMutability": "view",
      "type": "function"
    },
    {
      "inputs": [],
      "name": "execute",
      "outputs": [],
      "stateMutability": "nonpayable",
      "type": "function"
    },
    {
      "inputs": [],
      "name": "stake",
      "outputs": [],
      "stateMutability": "payable",
      "type": "function"
    },
    {
      "inputs": [
        {
          "internalType": "uint256",
          "name": "",
          "type": "uint256"
        }
      ],
      "name": "stakers",
      "outputs": [
        {
          "internalType": "address",
          "name": "",
          "type": "address"
        }
      ],
      "stateMutability": "view",
      "type": "function"
    },
    {
      "inputs": [],
      "name": "timeLeft",
      "outputs": [
        {
          "internalType": "uint256",
          "name": "",
          "type": "uint256"
        }
      ],
      "stateMutability": "view",
      "type": "function"
    },
    {
      "inputs": [],
      "name": "withdraw",
      "outputs": [],
      "stateMutability": "nonpayable",
      "type": "function"
    },
    {
      "stateMutability": "payable",
      "type": "receive"
    }
  ],
  "transactionHash": "0x8af0e96f56dbc51c0a72381991b08f84d89105da87bf1553f1b478a25ca38e7b",
  "args": [
    "0x609131c97494655dF5DCc7364e825C3c8b0e04cA"
  ],
  "numDeployments": 1,
  "solcInputHash": "1d6cff0d1abe3c417898db82d1556f06",
  "bytecode": "0x608060405234801561001057600080fd5b5060405161091038038061091083398101604081905261002f91610060565b600380546001600160a01b0319166001600160a01b0383161790556100576203f4804261008e565b600055506100b2565b600060208284031215610071578081fd5b81516001600160a01b0381168114610087578182fd5b9392505050565b600082198211156100ad57634e487b7160e01b81526011600452602481fd5b500190565b61084f806100c16000396000f3fe60806040526004361061007f5760003560e01c80633ccfd60b1161004e5780633ccfd60b1461010157806361461954146101165780639f75f2271461012b578063fd5e6dd1146101635761008e565b80631300a6d11461009657806327e235e3146100be57806329dcb0cf146100eb5780633a4b66f11461008e5761008e565b3661008e5761008c610183565b005b61008c610183565b3480156100a257600080fd5b506100ab6102dc565b6040519081526020015b60405180910390f35b3480156100ca57600080fd5b506100ab6100d9366004610753565b60016020526000908152604090205481565b3480156100f757600080fd5b506100ab60005481565b34801561010d57600080fd5b5061008c6102ff565b34801561012257600080fd5b5061008c61050b565b34801561013757600080fd5b5060035461014b906001600160a01b031681565b6040516001600160a01b0390911681526020016100b5565b34801561016f57600080fd5b5061014b61017e3660046107a1565b6106ac565b600034116101e35760405162461bcd60e51b815260206004820152602260248201527f596f75206d7573742073656e6420736f6d6520657468657220746f207374616b604482015261329760f11b60648201526084015b60405180910390fd5b600054421061022a5760405162461bcd60e51b8152602060048201526013602482015272111958591b1a5b99481a185cc81c185cdcd959606a1b60448201526064016101da565b3360009081526001602052604090205461028157600280546001810182556000919091527f405787fa12a823e0f2b7631cc41b3ba8828b3321ca811111fa75cd3aa3bb5ace0180546001600160a01b031916331790555b33600090815260016020526040812080543492906102a09084906107b9565b909155505060405134815233907febedb8b3c678666e7f36970bc8f57abf6d8fa2e828c0da91ea5b75bf68ed101a9060200160405180910390a2565b6000805442106102ec5750600090565b426000546102fa91906107d1565b905090565b60005442116103505760405162461bcd60e51b815260206004820152601c60248201527f446561646c696e6520686173206e6f7420706173736564207965742e0000000060448201526064016101da565b60035460408051639d9a7fe960e01b815290516000926001600160a01b031691639d9a7fe9916004808301926020929190829003018186803b15801561039557600080fd5b505afa1580156103a9573d6000803e3d6000fd5b505050506040513d601f19601f820116820180604052508101906103cd9190610781565b905080156104165760405162461bcd60e51b815260206004820152601660248201527529ba30b5b4b733903430b99031b7b6b83632ba32b21760511b60448201526064016101da565b60006104206106d6565b9050670de0b6b3a7640000811061046d5760405162461bcd60e51b8152602060048201526011602482015270151a1c995cda1bdb19081dd85cc81b595d607a1b60448201526064016101da565b33600090815260016020526040902054806104ca5760405162461bcd60e51b815260206004820152601760248201527f4e6f2062616c616e636520746f2077697468647261772e00000000000000000060448201526064016101da565b336000818152600160205260408082208290555183156108fc0291849190818181858888f19350505050158015610505573d6000803e3d6000fd5b50505050565b600054421161055c5760405162461bcd60e51b815260206004820152601c60248201527f446561646c696e6520686173206e6f7420706173736564207965742e0000000060448201526064016101da565b60035460408051639d9a7fe960e01b815290516000926001600160a01b031691639d9a7fe9916004808301926020929190829003018186803b1580156105a157600080fd5b505afa1580156105b5573d6000803e3d6000fd5b505050506040513d601f19601f820116820180604052508101906105d99190610781565b905080156106225760405162461bcd60e51b815260206004820152601660248201527529ba30b5b4b733903430b99031b7b6b83632ba32b21760511b60448201526064016101da565b600061062c6106d6565b9050670de0b6b3a76400008111156106a857600360009054906101000a90046001600160a01b03166001600160a01b031663522e1177476040518263ffffffff1660e01b81526004016000604051808303818588803b15801561068e57600080fd5b505af11580156106a2573d6000803e3d6000fd5b50505050505b5050565b600281815481106106bc57600080fd5b6000918252602090912001546001600160a01b0316905081565b600080805b60025481101561074d57600160006002838154811061070a57634e487b7160e01b600052603260045260246000fd5b60009182526020808320909101546001600160a01b0316835282019290925260400190205461073990836107b9565b915080610745816107e8565b9150506106db565b50919050565b600060208284031215610764578081fd5b81356001600160a01b038116811461077a578182fd5b9392505050565b600060208284031215610792578081fd5b8151801515811461077a578182fd5b6000602082840312156107b2578081fd5b5035919050565b600082198211156107cc576107cc610803565b500190565b6000828210156107e3576107e3610803565b500390565b60006000198214156107fc576107fc610803565b5060010190565b634e487b7160e01b600052601160045260246000fdfea264697066735822122079689920672a564c1f31113bea03b2a93760643ec4df8d3d7305cef7961498fc64736f6c63430008040033",
  "devdoc": {
    "kind": "dev",
    "methods": {},
    "version": 1
  },
  "userdoc": {
    "kind": "user",
    "methods": {},
    "version": 1
  },
  "storageLayout": {
    "storage": [
      {
        "astId": 18,
        "contract": "contracts/Staker.sol:Staker",
        "label": "deadline",
        "offset": 0,
        "slot": "0",
        "type": "t_uint256"
      },
      {
        "astId": 25,
        "contract": "contracts/Staker.sol:Staker",
        "label": "balances",
        "offset": 0,
        "slot": "1",
        "type": "t_mapping(t_address,t_uint256)"
      },
      {
        "astId": 28,
        "contract": "contracts/Staker.sol:Staker",
        "label": "stakers",
        "offset": 0,
        "slot": "2",
        "type": "t_array(t_address)dyn_storage"
      },
      {
        "astId": 40,
        "contract": "contracts/Staker.sol:Staker",
        "label": "exampleExternalContract",
        "offset": 0,
        "slot": "3",
        "type": "t_contract(ExampleExternalContract)12"
      }
    ],
    "types": {
      "t_address": {
        "encoding": "inplace",
        "label": "address",
        "numberOfBytes": "20"
      },
      "t_array(t_address)dyn_storage": {
        "base": "t_address",
        "encoding": "dynamic_array",
        "label": "address[]",
        "numberOfBytes": "32"
      },
      "t_contract(ExampleExternalContract)12": {
        "encoding": "inplace",
        "label": "contract ExampleExternalContract",
        "numberOfBytes": "20"
      },
      "t_mapping(t_address,t_uint256)": {
        "encoding": "mapping",
        "key": "t_address",
        "label": "mapping(address => uint256)",
        "numberOfBytes": "32",
        "value": "t_uint256"
      },
      "t_uint256": {
        "encoding": "inplace",
        "label": "uint256",
        "numberOfBytes": "32"
      }
    }
  }
}